{
  "address": "0x5FbDB2315678afecb367f032d93F642f64180aa3",
  "abi": [
    {
      "inputs": [],
      "stateMutability": "nonpayable",
      "type": "constructor"
    },
    {
      "inputs": [],
      "name": "ApprovalCallerNotOwnerNorApproved",
      "type": "error"
    },
    {
      "inputs": [],
      "name": "ApprovalQueryForNonexistentToken",
      "type": "error"
    },
    {
      "inputs": [],
      "name": "BalanceQueryForZeroAddress",
      "type": "error"
    },
    {
      "inputs": [
        {
          "internalType": "uint256",
          "name": "",
          "type": "uint256"
        }
      ],
      "name": "CanNotReMint",
      "type": "error"
    },
    {
      "inputs": [],
      "name": "MintERC2309QuantityExceedsLimit",
      "type": "error"
    },
    {
      "inputs": [],
      "name": "MintToZeroAddress",
      "type": "error"
    },
    {
      "inputs": [],
      "name": "MintZeroQuantity",
      "type": "error"
    },
    {
      "inputs": [],
      "name": "NotEnoughPayment",
      "type": "error"
    },
    {
      "inputs": [
        {
          "internalType": "uint256",
          "name": "",
          "type": "uint256"
        }
      ],
      "name": "NotRedeemByOwner",
      "type": "error"
    },
    {
      "inputs": [],
      "name": "OwnerQueryForNonexistentToken",
      "type": "error"
    },
    {
      "inputs": [],
      "name": "OwnershipNotInitializedForExtraData",
      "type": "error"
    },
    {
      "inputs": [],
      "name": "TransferCallerNotOwnerNorApproved",
      "type": "error"
    },
    {
      "inputs": [],
      "name": "TransferFromIncorrectOwner",
      "type": "error"
    },
    {
      "inputs": [],
      "name": "TransferToNonERC721ReceiverImplementer",
      "type": "error"
    },
    {
      "inputs": [],
      "name": "TransferToZeroAddress",
      "type": "error"
    },
    {
      "inputs": [],
      "name": "URIQueryForNonexistentToken",
      "type": "error"
    },
    {
      "anonymous": false,
      "inputs": [
        {
          "indexed": true,
          "internalType": "address",
          "name": "owner",
          "type": "address"
        },
        {
          "indexed": true,
          "internalType": "address",
          "name": "approved",
          "type": "address"
        },
        {
          "indexed": true,
          "internalType": "uint256",
          "name": "tokenId",
          "type": "uint256"
        }
      ],
      "name": "Approval",
      "type": "event"
    },
    {
      "anonymous": false,
      "inputs": [
        {
          "indexed": true,
          "internalType": "address",
          "name": "owner",
          "type": "address"
        },
        {
          "indexed": true,
          "internalType": "address",
          "name": "operator",
          "type": "address"
        },
        {
          "indexed": false,
          "internalType": "bool",
          "name": "approved",
          "type": "bool"
        }
      ],
      "name": "ApprovalForAll",
      "type": "event"
    },
    {
      "anonymous": false,
      "inputs": [
        {
          "indexed": true,
          "internalType": "uint256",
          "name": "fromTokenId",
          "type": "uint256"
        },
        {
          "indexed": false,
          "internalType": "uint256",
          "name": "toTokenId",
          "type": "uint256"
        },
        {
          "indexed": true,
          "internalType": "address",
          "name": "from",
          "type": "address"
        },
        {
          "indexed": true,
          "internalType": "address",
          "name": "to",
          "type": "address"
        }
      ],
      "name": "ConsecutiveTransfer",
      "type": "event"
    },
    {
      "anonymous": false,
      "inputs": [
        {
          "indexed": true,
          "internalType": "address",
          "name": "token",
          "type": "address"
        },
        {
          "indexed": false,
          "internalType": "uint256",
          "name": "amount",
          "type": "uint256"
        }
      ],
      "name": "ERC20Released",
      "type": "event"
    },
    {
      "anonymous": false,
      "inputs": [
        {
          "indexed": false,
          "internalType": "uint256",
          "name": "amount",
          "type": "uint256"
        }
      ],
      "name": "EtherReleased",
      "type": "event"
    },
    {
      "anonymous": false,
      "inputs": [
        {
          "indexed": true,
          "internalType": "address",
          "name": "from",
          "type": "address"
        },
        {
          "indexed": true,
          "internalType": "address",
          "name": "to",
          "type": "address"
        },
        {
          "indexed": true,
          "internalType": "uint256",
          "name": "tokenId",
          "type": "uint256"
        }
      ],
      "name": "Transfer",
      "type": "event"
    },
    {
      "inputs": [],
      "name": "DURATION_SEC",
      "outputs": [
        {
          "internalType": "uint64",
          "name": "",
          "type": "uint64"
        }
      ],
      "stateMutability": "view",
      "type": "function"
    },
    {
      "inputs": [],
      "name": "MAX_SUPPLY",
      "outputs": [
        {
          "internalType": "uint256",
          "name": "",
          "type": "uint256"
        }
      ],
      "stateMutability": "view",
      "type": "function"
    },
    {
      "inputs": [],
      "name": "MINT_PRICE",
      "outputs": [
        {
          "internalType": "uint256",
          "name": "",
          "type": "uint256"
        }
      ],
      "stateMutability": "view",
      "type": "function"
    },
    {
      "inputs": [
        {
          "internalType": "address",
          "name": "to",
          "type": "address"
        },
        {
          "internalType": "uint256",
          "name": "tokenId",
          "type": "uint256"
        }
      ],
      "name": "approve",
      "outputs": [],
      "stateMutability": "payable",
      "type": "function"
    },
    {
      "inputs": [
        {
          "internalType": "address",
          "name": "owner",
          "type": "address"
        }
      ],
      "name": "balanceOf",
      "outputs": [
        {
          "internalType": "uint256",
          "name": "",
          "type": "uint256"
        }
      ],
      "stateMutability": "view",
      "type": "function"
    },
    {
      "inputs": [],
      "name": "beneficiary",
      "outputs": [
        {
          "internalType": "address",
          "name": "",
          "type": "address"
        }
      ],
      "stateMutability": "view",
      "type": "function"
    },
    {
      "inputs": [],
      "name": "duration",
      "outputs": [
        {
          "internalType": "uint256",
          "name": "",
          "type": "uint256"
        }
      ],
      "stateMutability": "view",
      "type": "function"
    },
    {
      "inputs": [
        {
          "internalType": "uint256",
          "name": "tokenId",
          "type": "uint256"
        }
      ],
      "name": "getApproved",
      "outputs": [
        {
          "internalType": "address",
          "name": "",
          "type": "address"
        }
      ],
      "stateMutability": "view",
      "type": "function"
    },
    {
      "inputs": [
        {
          "internalType": "address",
          "name": "owner",
          "type": "address"
        },
        {
          "internalType": "address",
          "name": "operator",
          "type": "address"
        }
      ],
      "name": "isApprovedForAll",
      "outputs": [
        {
          "internalType": "bool",
          "name": "",
          "type": "bool"
        }
      ],
      "stateMutability": "view",
      "type": "function"
    },
    {
      "inputs": [],
      "name": "name",
      "outputs": [
        {
          "internalType": "string",
          "name": "",
          "type": "string"
        }
      ],
      "stateMutability": "view",
      "type": "function"
    },
    {
      "inputs": [
        {
          "internalType": "uint256",
          "name": "tokenId",
          "type": "uint256"
        }
      ],
      "name": "ownerOf",
      "outputs": [
        {
          "internalType": "address",
          "name": "",
          "type": "address"
        }
      ],
      "stateMutability": "view",
      "type": "function"
    },
    {
      "inputs": [
        {
          "internalType": "uint256",
          "name": "amount",
          "type": "uint256"
        }
      ],
      "name": "publicMint",
      "outputs": [],
      "stateMutability": "payable",
      "type": "function"
    },
    {
      "inputs": [
        {
          "internalType": "uint256[]",
          "name": "tokenIdList",
          "type": "uint256[]"
        }
      ],
      "name": "reMint",
      "outputs": [],
      "stateMutability": "payable",
      "type": "function"
    },
    {
      "inputs": [
        {
          "internalType": "uint256[]",
          "name": "tokenIdList",
          "type": "uint256[]"
        }
      ],
      "name": "redeem",
      "outputs": [],
      "stateMutability": "nonpayable",
      "type": "function"
    },
    {
      "inputs": [
        {
          "internalType": "address",
          "name": "token",
          "type": "address"
        }
      ],
      "name": "release",
      "outputs": [],
      "stateMutability": "nonpayable",
      "type": "function"
    },
    {
      "inputs": [],
      "name": "release",
      "outputs": [],
      "stateMutability": "nonpayable",
      "type": "function"
    },
    {
      "inputs": [],
      "name": "released",
      "outputs": [
        {
          "internalType": "uint256",
          "name": "",
          "type": "uint256"
        }
      ],
      "stateMutability": "view",
      "type": "function"
    },
    {
      "inputs": [
        {
          "internalType": "address",
          "name": "token",
          "type": "address"
        }
      ],
      "name": "released",
      "outputs": [
        {
          "internalType": "uint256",
          "name": "",
          "type": "uint256"
        }
      ],
      "stateMutability": "view",
      "type": "function"
    },
    {
      "inputs": [
        {
          "internalType": "address",
          "name": "from",
          "type": "address"
        },
        {
          "internalType": "address",
          "name": "to",
          "type": "address"
        },
        {
          "internalType": "uint256",
          "name": "tokenId",
          "type": "uint256"
        }
      ],
      "name": "safeTransferFrom",
      "outputs": [],
      "stateMutability": "payable",
      "type": "function"
    },
    {
      "inputs": [
        {
          "internalType": "address",
          "name": "from",
          "type": "address"
        },
        {
          "internalType": "address",
          "name": "to",
          "type": "address"
        },
        {
          "internalType": "uint256",
          "name": "tokenId",
          "type": "uint256"
        },
        {
          "internalType": "bytes",
          "name": "_data",
          "type": "bytes"
        }
      ],
      "name": "safeTransferFrom",
      "outputs": [],
      "stateMutability": "payable",
      "type": "function"
    },
    {
      "inputs": [
        {
          "internalType": "address",
          "name": "operator",
          "type": "address"
        },
        {
          "internalType": "bool",
          "name": "approved",
          "type": "bool"
        }
      ],
      "name": "setApprovalForAll",
      "outputs": [],
      "stateMutability": "nonpayable",
      "type": "function"
    },
    {
      "inputs": [],
      "name": "start",
      "outputs": [
        {
          "internalType": "uint256",
          "name": "",
          "type": "uint256"
        }
      ],
      "stateMutability": "view",
      "type": "function"
    },
    {
      "inputs": [
        {
          "internalType": "bytes4",
          "name": "interfaceId",
          "type": "bytes4"
        }
      ],
      "name": "supportsInterface",
      "outputs": [
        {
          "internalType": "bool",
          "name": "",
          "type": "bool"
        }
      ],
      "stateMutability": "view",
      "type": "function"
    },
    {
      "inputs": [],
      "name": "symbol",
      "outputs": [
        {
          "internalType": "string",
          "name": "",
          "type": "string"
        }
      ],
      "stateMutability": "view",
      "type": "function"
    },
    {
      "inputs": [
        {
          "internalType": "uint256",
          "name": "tokenId",
          "type": "uint256"
        }
      ],
      "name": "tokenURI",
      "outputs": [
        {
          "internalType": "string",
          "name": "",
          "type": "string"
        }
      ],
      "stateMutability": "view",
      "type": "function"
    },
    {
      "inputs": [],
      "name": "totalSupply",
      "outputs": [
        {
          "internalType": "uint256",
          "name": "",
          "type": "uint256"
        }
      ],
      "stateMutability": "view",
      "type": "function"
    },
    {
      "inputs": [
        {
          "internalType": "address",
          "name": "from",
          "type": "address"
        },
        {
          "internalType": "address",
          "name": "to",
          "type": "address"
        },
        {
          "internalType": "uint256",
          "name": "tokenId",
          "type": "uint256"
        }
      ],
      "name": "transferFrom",
      "outputs": [],
      "stateMutability": "payable",
      "type": "function"
    },
    {
      "inputs": [
        {
          "internalType": "uint64",
          "name": "timestamp",
          "type": "uint64"
        }
      ],
      "name": "vestedAmount",
      "outputs": [
        {
          "internalType": "uint256",
          "name": "",
          "type": "uint256"
        }
      ],
      "stateMutability": "view",
      "type": "function"
    },
    {
      "inputs": [
        {
          "internalType": "address",
          "name": "token",
          "type": "address"
        },
        {
          "internalType": "uint64",
          "name": "timestamp",
          "type": "uint64"
        }
      ],
      "name": "vestedAmount",
      "outputs": [
        {
          "internalType": "uint256",
          "name": "",
          "type": "uint256"
        }
      ],
      "stateMutability": "view",
      "type": "function"
    },
    {
      "stateMutability": "payable",
      "type": "receive"
    }
  ],
  "transactionHash": "0xf7053c85458445e7f1878fa8fc1ab60ce1123f27aed0f05f43101530e0246e05",
  "args": [],
  "numDeployments": 1,
  "solcInputHash": "5e0bd021f45fbd8e2288294a217dc18d",
  "bytecode": "0x60e06040523480156200001157600080fd5b5067016345785d8a0000336200002b4262093a80620001d7565b604080518082018252600a815269293ab3a3b934b83832b960b11b602080830191825283518085019094526004845263292aa3a960e11b9084015281516249d40093916200007d916002919062000131565b5080516200009390600390602084019062000131565b506000805550506001600160a01b038316620001085760405162461bcd60e51b815260206004820152602a60248201527f56657374696e6757616c6c65743a2062656e6566696369617279206973207a65604482015269726f206164647265737360b01b606482015260840160405180910390fd5b6001600160a01b039092166080526001600160401b0390811660a0521660c052600a556200023a565b8280546200013f90620001fe565b90600052602060002090601f016020900481019282620001635760008555620001ae565b82601f106200017e57805160ff1916838001178555620001ae565b82800160010185558215620001ae579182015b82811115620001ae57825182559160200191906001019062000191565b50620001bc929150620001c0565b5090565b5b80821115620001bc5760008155600101620001c1565b60008219821115620001f957634e487b7160e01b600052601160045260246000fd5b500190565b600181811c908216806200021357607f821691505b6020821081036200023457634e487b7160e01b600052602260045260246000fd5b50919050565b60805160a05160c05161249c6200029b600039600081816102c00152818161133d01526113a00152600081816104df015281816112ed0152818161136101526113cb015260008181610371015281816109a30152610ed0015261249c6000f3fe6080604052600436106101c65760003560e01c806370a08231116100f7578063a22cb46511610095578063c87b56dd11610064578063c87b56dd14610529578063e985e9c514610549578063f9afb26a1461059f578063fcc04891146105bf57600080fd5b8063a22cb4651461049d578063b88d4fde146104bd578063be9a6555146104d0578063c002d23d1461050d57600080fd5b806395d89b41116100d157806395d89b411461041d578063961325211461043257806396cbbeac146104475780639852595c1461045a57600080fd5b806370a08231146103c8578063810ec23b146103e857806386d1a69f1461040857600080fd5b8063191655871161016457806332cb6b0c1161013e57806332cb6b0c1461034d57806338af3eed1461036257806342842e0e146103955780636352211e146103a857600080fd5b8063191655871461030757806323b872dd146103275780632db115441461033a57600080fd5b8063095ea7b3116101a0578063095ea7b31461026e5780630a17b06b146102835780630fb5a6b4146102b157806318160ddd146102ee57600080fd5b806301ffc9a7146101d257806306fdde0314610207578063081812fc1461022957600080fd5b366101cd57005b600080fd5b3480156101de57600080fd5b506101f26101ed366004611e13565b6105ef565b60405190151581526020015b60405180910390f35b34801561021357600080fd5b5061021c6106d4565b6040516101fe9190611ea6565b34801561023557600080fd5b50610249610244366004611eb9565b610766565b60405173ffffffffffffffffffffffffffffffffffffffff90911681526020016101fe565b61028161027c366004611efb565b6107d0565b005b34801561028f57600080fd5b506102a361029e366004611f3d565b6108bb565b6040519081526020016101fe565b3480156102bd57600080fd5b507f000000000000000000000000000000000000000000000000000000000000000067ffffffffffffffff166102a3565b3480156102fa57600080fd5b50600154600054036102a3565b34801561031357600080fd5b50610281610322366004611f58565b6108d9565b610281610335366004611f73565b6109cc565b610281610348366004611eb9565b610c5b565b34801561035957600080fd5b506102a3606481565b34801561036e57600080fd5b507f0000000000000000000000000000000000000000000000000000000000000000610249565b6102816103a3366004611f73565b610ceb565b3480156103b457600080fd5b506102496103c3366004611eb9565b610d0b565b3480156103d457600080fd5b506102a36103e3366004611f58565b610d16565b3480156103f457600080fd5b506102a3610403366004611faf565b610d98565b34801561041457600080fd5b50610281610e61565b34801561042957600080fd5b5061021c610ef5565b34801561043e57600080fd5b506008546102a3565b610281610455366004611fe2565b610f04565b34801561046657600080fd5b506102a3610475366004611f58565b73ffffffffffffffffffffffffffffffffffffffff1660009081526009602052604090205490565b3480156104a957600080fd5b506102816104b8366004612065565b611013565b6102816104cb3660046120cb565b6110aa565b3480156104dc57600080fd5b507f000000000000000000000000000000000000000000000000000000000000000067ffffffffffffffff166102a3565b34801561051957600080fd5b506102a367016345785d8a000081565b34801561053557600080fd5b5061021c610544366004611eb9565b611114565b34801561055557600080fd5b506101f26105643660046121c5565b73ffffffffffffffffffffffffffffffffffffffff918216600090815260076020908152604080832093909416825291909152205460ff1690565b3480156105ab57600080fd5b506102816105ba366004611fe2565b6111bd565b3480156105cb57600080fd5b506105d66249d40081565b60405167ffffffffffffffff90911681526020016101fe565b60007f01ffc9a7000000000000000000000000000000000000000000000000000000007fffffffff000000000000000000000000000000000000000000000000000000008316148061068257507f80ac58cd000000000000000000000000000000000000000000000000000000007fffffffff000000000000000000000000000000000000000000000000000000008316145b806106ce57507f5b5e139f000000000000000000000000000000000000000000000000000000007fffffffff000000000000000000000000000000000000000000000000000000008316145b92915050565b6060600280546106e3906121ef565b80601f016020809104026020016040519081016040528092919081815260200182805461070f906121ef565b801561075c5780601f106107315761010080835404028352916020019161075c565b820191906000526020600020905b81548152906001019060200180831161073f57829003601f168201915b5050505050905090565b6000610771826112a9565b6107a7576040517fcf4700e400000000000000000000000000000000000000000000000000000000815260040160405180910390fd5b5060009081526006602052604090205473ffffffffffffffffffffffffffffffffffffffff1690565b60006107db82610d0b565b90503373ffffffffffffffffffffffffffffffffffffffff82161461083a576108048133610564565b61083a576040517fcfb3b94200000000000000000000000000000000000000000000000000000000815260040160405180910390fd5b60008281526006602052604080822080547fffffffffffffffffffffffff00000000000000000000000000000000000000001673ffffffffffffffffffffffffffffffffffffffff87811691821790925591518593918516917f8c5be1e5ebec7d5bd14f71427d1e84f3dd0314c0f7b2291e5b200ac8c7c3b92591a4505050565b60006106ce6108c960085490565b6108d39047612271565b836112e9565b73ffffffffffffffffffffffffffffffffffffffff81166000908152600960205260408120546109098342610d98565b6109139190612289565b73ffffffffffffffffffffffffffffffffffffffff831660009081526009602052604081208054929350839290919061094d908490612271565b909155505060405181815273ffffffffffffffffffffffffffffffffffffffff8316907fc0e523490dd523c33b1878c9eb14ff46991e3f5b2cd33710918618f2a39cba1b9060200160405180910390a26109c8827f000000000000000000000000000000000000000000000000000000000000000083611423565b5050565b60006109d7826114b0565b90508373ffffffffffffffffffffffffffffffffffffffff168173ffffffffffffffffffffffffffffffffffffffff1614610a3e576040517fa114810000000000000000000000000000000000000000000000000000000000815260040160405180910390fd5b600082815260066020526040902080543380821473ffffffffffffffffffffffffffffffffffffffff881690911417610ab157610a7b8633610564565b610ab1576040517f59c896be00000000000000000000000000000000000000000000000000000000815260040160405180910390fd5b73ffffffffffffffffffffffffffffffffffffffff8516610afe576040517fea553b3400000000000000000000000000000000000000000000000000000000815260040160405180910390fd5b8015610b0957600082555b73ffffffffffffffffffffffffffffffffffffffff86811660009081526005602052604080822080547fffffffffffffffffffffffffffffffffffffffffffffffffffffffffffffffff019055918716808252919020805460010190554260a01b177c0200000000000000000000000000000000000000000000000000000000176000858152600460205260408120919091557c020000000000000000000000000000000000000000000000000000000084169003610bf857600184016000818152600460205260408120549003610bf6576000548114610bf65760008181526004602052604090208490555b505b838573ffffffffffffffffffffffffffffffffffffffff168773ffffffffffffffffffffffffffffffffffffffff167fddf252ad1be2c89b69c2b068fc378daa952ba7f163c4a11628f55a4df523b3ef60405160405180910390a4505050505050565b606481610c6760005490565b610c719190612271565b1115610cde576040517f08c379a000000000000000000000000000000000000000000000000000000000815260206004820152601160248201527f657863656564206d617820737570706c7900000000000000000000000000000060448201526064015b60405180910390fd5b610ce83382611567565b50565b610d06838383604051806020016040528060008152506110aa565b505050565b60006106ce826114b0565b600073ffffffffffffffffffffffffffffffffffffffff8216610d65576040517f8f4eb60400000000000000000000000000000000000000000000000000000000815260040160405180910390fd5b5073ffffffffffffffffffffffffffffffffffffffff1660009081526005602052604090205467ffffffffffffffff1690565b73ffffffffffffffffffffffffffffffffffffffff8216600090815260096020526040812054610e5a906040517f70a0823100000000000000000000000000000000000000000000000000000000815230600482015273ffffffffffffffffffffffffffffffffffffffff8616906370a0823190602401602060405180830381865afa158015610e2c573d6000803e3d6000fd5b505050506040513d601f19601f82011682018060405250810190610e5091906122a0565b6108d39190612271565b9392505050565b6000610e6c60085490565b610e75426108bb565b610e7f9190612289565b90508060086000828254610e939190612271565b90915550506040518181527fda9d4e5f101b8b9b1c5b76d0c5a9f7923571acfc02376aa076b75a8c080c956b9060200160405180910390a1610ce87f000000000000000000000000000000000000000000000000000000000000000082611581565b6060600380546106e3906121ef565b806000805b82811015610fd2576000858583818110610f2557610f256122b9565b905060200201359050610f353390565b73ffffffffffffffffffffffffffffffffffffffff16610f5482610d0b565b73ffffffffffffffffffffffffffffffffffffffff1614610fa4576040517f22627d5a00000000000000000000000000000000000000000000000000000000815260048101829052602401610cd5565b610faf3033836109cc565b600a54610fbc9084612271565b9250508080610fca906122e8565b915050610f09565b508034101561100d576040517f6d35ff8c00000000000000000000000000000000000000000000000000000000815260040160405180910390fd5b50505050565b33600081815260076020908152604080832073ffffffffffffffffffffffffffffffffffffffff87168085529083529281902080547fffffffffffffffffffffffffffffffffffffffffffffffffffffffffffffff001686151590811790915590519081529192917f17307eab39ab6107e8899845ad3d59bd9653f200f220920489ca2b5937696c31910160405180910390a35050565b6110b58484846109cc565b73ffffffffffffffffffffffffffffffffffffffff83163b1561100d576110de848484846116db565b61100d576040517fd1a57ed600000000000000000000000000000000000000000000000000000000815260040160405180910390fd5b606061111f826112a9565b611155576040517fa14c4b5000000000000000000000000000000000000000000000000000000000815260040160405180910390fd5b600061116c60408051602081019091526000815290565b9050805160000361118c5760405180602001604052806000815250610e5a565b8061119684611854565b6040516020016111a7929190612320565b6040516020818303038152906040529392505050565b806000805b8281101561128b5760008585838181106111de576111de6122b9565b9050602002013590506111ee3390565b73ffffffffffffffffffffffffffffffffffffffff1661120d82610d0b565b73ffffffffffffffffffffffffffffffffffffffff161461125d576040517f43667a0100000000000000000000000000000000000000000000000000000000815260048101829052602401610cd5565b6112683330836109cc565b600a546112759084612271565b9250508080611283906122e8565b9150506111c2565b5061100d3361129a83426112e9565b6112a49084612289565b611581565b60008054821080156106ce5750506000908152600460205260409020547c0100000000000000000000000000000000000000000000000000000000161590565b60007f000000000000000000000000000000000000000000000000000000000000000067ffffffffffffffff168267ffffffffffffffff16101561132f575060006106ce565b61138667ffffffffffffffff7f00000000000000000000000000000000000000000000000000000000000000008116907f000000000000000000000000000000000000000000000000000000000000000016612271565b8267ffffffffffffffff16111561139e5750816106ce565b7f000000000000000000000000000000000000000000000000000000000000000067ffffffffffffffff167f000000000000000000000000000000000000000000000000000000000000000067ffffffffffffffff166114089067ffffffffffffffff8516612289565b611412908561234f565b61141c919061238c565b90506106ce565b6040805173ffffffffffffffffffffffffffffffffffffffff8416602482015260448082018490528251808303909101815260649091019091526020810180517bffffffffffffffffffffffffffffffffffffffffffffffffffffffff167fa9059cbb00000000000000000000000000000000000000000000000000000000179052610d069084906118b6565b60008160005481101561153557600081815260046020526040812054907c010000000000000000000000000000000000000000000000000000000082169003611533575b80600003610e5a57507fffffffffffffffffffffffffffffffffffffffffffffffffffffffffffffffff016000818152600460205260409020546114f4565b505b6040517fdf2d9b4200000000000000000000000000000000000000000000000000000000815260040160405180910390fd5b6109c88282604051806020016040528060008152506119c2565b804710156115eb576040517f08c379a000000000000000000000000000000000000000000000000000000000815260206004820152601d60248201527f416464726573733a20696e73756666696369656e742062616c616e63650000006044820152606401610cd5565b60008273ffffffffffffffffffffffffffffffffffffffff168260405160006040518083038185875af1925050503d8060008114611645576040519150601f19603f3d011682016040523d82523d6000602084013e61164a565b606091505b5050905080610d06576040517f08c379a000000000000000000000000000000000000000000000000000000000815260206004820152603a60248201527f416464726573733a20756e61626c6520746f2073656e642076616c75652c207260448201527f6563697069656e74206d617920686176652072657665727465640000000000006064820152608401610cd5565b6040517f150b7a0200000000000000000000000000000000000000000000000000000000815260009073ffffffffffffffffffffffffffffffffffffffff85169063150b7a02906117369033908990889088906004016123c7565b6020604051808303816000875af192505050801561178f575060408051601f3d9081017fffffffffffffffffffffffffffffffffffffffffffffffffffffffffffffffe016820190925261178c91810190612410565b60015b611806573d8080156117bd576040519150601f19603f3d011682016040523d82523d6000602084013e6117c2565b606091505b5080516000036117fe576040517fd1a57ed600000000000000000000000000000000000000000000000000000000815260040160405180910390fd5b805181602001fd5b7fffffffff00000000000000000000000000000000000000000000000000000000167f150b7a0200000000000000000000000000000000000000000000000000000000149050949350505050565b606060a06040510180604052602081039150506000815280825b600183039250600a81066030018353600a90048061186e57508190037fffffffffffffffffffffffffffffffffffffffffffffffffffffffffffffffe0909101908152919050565b6000611918826040518060400160405280602081526020017f5361666545524332303a206c6f772d6c6576656c2063616c6c206661696c65648152508573ffffffffffffffffffffffffffffffffffffffff16611a149092919063ffffffff16565b805190915015610d065780806020019051810190611936919061242d565b610d06576040517f08c379a000000000000000000000000000000000000000000000000000000000815260206004820152602a60248201527f5361666545524332303a204552433230206f7065726174696f6e20646964206e60448201527f6f742073756363656564000000000000000000000000000000000000000000006064820152608401610cd5565b34600a54836119d1919061234f565b1015611a09576040517f6d35ff8c00000000000000000000000000000000000000000000000000000000815260040160405180910390fd5b610d06838383611a2b565b6060611a238484600085611abe565b949350505050565b611a358383611c54565b73ffffffffffffffffffffffffffffffffffffffff83163b15610d06576000548281035b611a6c60008683806001019450866116db565b611aa2576040517fd1a57ed600000000000000000000000000000000000000000000000000000000815260040160405180910390fd5b818110611a59578160005414611ab757600080fd5b5050505050565b606082471015611b50576040517f08c379a000000000000000000000000000000000000000000000000000000000815260206004820152602660248201527f416464726573733a20696e73756666696369656e742062616c616e636520666f60448201527f722063616c6c00000000000000000000000000000000000000000000000000006064820152608401610cd5565b73ffffffffffffffffffffffffffffffffffffffff85163b611bce576040517f08c379a000000000000000000000000000000000000000000000000000000000815260206004820152601d60248201527f416464726573733a2063616c6c20746f206e6f6e2d636f6e74726163740000006044820152606401610cd5565b6000808673ffffffffffffffffffffffffffffffffffffffff168587604051611bf7919061244a565b60006040518083038185875af1925050503d8060008114611c34576040519150601f19603f3d011682016040523d82523d6000602084013e611c39565b606091505b5091509150611c49828286611d92565b979650505050505050565b6000805490829003611c92576040517fb562e8dd00000000000000000000000000000000000000000000000000000000815260040160405180910390fd5b73ffffffffffffffffffffffffffffffffffffffff831660008181526005602090815260408083208054680100000000000000018802019055848352600490915281206001851460e11b4260a01b178317905582840190839083907fddf252ad1be2c89b69c2b068fc378daa952ba7f163c4a11628f55a4df523b3ef8180a4600183015b818114611d4e57808360007fddf252ad1be2c89b69c2b068fc378daa952ba7f163c4a11628f55a4df523b3ef600080a4600101611d16565b5081600003611d89576040517f2e07630000000000000000000000000000000000000000000000000000000000815260040160405180910390fd5b60005550505050565b60608315611da1575081610e5a565b825115611db15782518084602001fd5b816040517f08c379a0000000000000000000000000000000000000000000000000000000008152600401610cd59190611ea6565b7fffffffff0000000000000000000000000000000000000000000000000000000081168114610ce857600080fd5b600060208284031215611e2557600080fd5b8135610e5a81611de5565b60005b83811015611e4b578181015183820152602001611e33565b8381111561100d5750506000910152565b60008151808452611e74816020860160208601611e30565b601f017fffffffffffffffffffffffffffffffffffffffffffffffffffffffffffffffe0169290920160200192915050565b602081526000610e5a6020830184611e5c565b600060208284031215611ecb57600080fd5b5035919050565b803573ffffffffffffffffffffffffffffffffffffffff81168114611ef657600080fd5b919050565b60008060408385031215611f0e57600080fd5b611f1783611ed2565b946020939093013593505050565b803567ffffffffffffffff81168114611ef657600080fd5b600060208284031215611f4f57600080fd5b610e5a82611f25565b600060208284031215611f6a57600080fd5b610e5a82611ed2565b600080600060608486031215611f8857600080fd5b611f9184611ed2565b9250611f9f60208501611ed2565b9150604084013590509250925092565b60008060408385031215611fc257600080fd5b611fcb83611ed2565b9150611fd960208401611f25565b90509250929050565b60008060208385031215611ff557600080fd5b823567ffffffffffffffff8082111561200d57600080fd5b818501915085601f83011261202157600080fd5b81358181111561203057600080fd5b8660208260051b850101111561204557600080fd5b60209290920196919550909350505050565b8015158114610ce857600080fd5b6000806040838503121561207857600080fd5b61208183611ed2565b9150602083013561209181612057565b809150509250929050565b7f4e487b7100000000000000000000000000000000000000000000000000000000600052604160045260246000fd5b600080600080608085870312156120e157600080fd5b6120ea85611ed2565b93506120f860208601611ed2565b925060408501359150606085013567ffffffffffffffff8082111561211c57600080fd5b818701915087601f83011261213057600080fd5b8135818111156121425761214261209c565b604051601f82017fffffffffffffffffffffffffffffffffffffffffffffffffffffffffffffffe0908116603f011681019083821181831017156121885761218861209c565b816040528281528a60208487010111156121a157600080fd5b82602086016020830137600060208483010152809550505050505092959194509250565b600080604083850312156121d857600080fd5b6121e183611ed2565b9150611fd960208401611ed2565b600181811c9082168061220357607f821691505b60208210810361223c577f4e487b7100000000000000000000000000000000000000000000000000000000600052602260045260246000fd5b50919050565b7f4e487b7100000000000000000000000000000000000000000000000000000000600052601160045260246000fd5b6000821982111561228457612284612242565b500190565b60008282101561229b5761229b612242565b500390565b6000602082840312156122b257600080fd5b5051919050565b7f4e487b7100000000000000000000000000000000000000000000000000000000600052603260045260246000fd5b60007fffffffffffffffffffffffffffffffffffffffffffffffffffffffffffffffff820361231957612319612242565b5060010190565b60008351612332818460208801611e30565b835190830190612346818360208801611e30565b01949350505050565b6000817fffffffffffffffffffffffffffffffffffffffffffffffffffffffffffffffff048311821515161561238757612387612242565b500290565b6000826123c2577f4e487b7100000000000000000000000000000000000000000000000000000000600052601260045260246000fd5b500490565b600073ffffffffffffffffffffffffffffffffffffffff8087168352808616602084015250836040830152608060608301526124066080830184611e5c565b9695505050505050565b60006020828403121561242257600080fd5b8151610e5a81611de5565b60006020828403121561243f57600080fd5b8151610e5a81612057565b6000825161245c818460208701611e30565b919091019291505056fea26469706673582212206f66efc9f8c340ff7603e933ccbfc1324e391d1f6213c950807da4ce1900ff2564736f6c634300080d0033",
  "devdoc": {
    "errors": {
      "CanNotReMint(uint256)": [
        {
          "details": "Can't re-mint before mint"
        }
      ],
      "NotEnoughPayment()": [
        {
          "details": "Payment lower than amount * price"
        }
      ],
      "NotRedeemByOwner(uint256)": [
        {
          "details": "User redeem unowned token"
        }
      ]
    },
    "kind": "dev",
    "methods": {
      "approve(address,uint256)": {
        "details": "Gives permission to `to` to transfer `tokenId` token to another account. The approval is cleared when the token is transferred. Only a single account can be approved at a time, so approving the zero address clears previous approvals. Requirements: - The caller must own the token or be an approved operator. - `tokenId` must exist. Emits an {Approval} event."
      },
      "balanceOf(address)": {
        "details": "Returns the number of tokens in `owner`'s account."
      },
      "beneficiary()": {
        "details": "Getter for the beneficiary address."
      },
      "constructor": {
        "details": "Setup ERC721, VestingWallet"
      },
      "duration()": {
        "details": "Getter for the vesting duration."
      },
      "getApproved(uint256)": {
        "details": "Returns the account approved for `tokenId` token. Requirements: - `tokenId` must exist."
      },
      "isApprovedForAll(address,address)": {
        "details": "Returns if the `operator` is allowed to manage all of the assets of `owner`. See {setApprovalForAll}."
      },
      "name()": {
        "details": "Returns the token collection name."
      },
      "ownerOf(uint256)": {
        "details": "Returns the owner of the `tokenId` token. Requirements: - `tokenId` must exist."
      },
      "release()": {
        "details": "Release the native token (ether) that have already vested. Emits a {EtherReleased} event."
      },
      "release(address)": {
        "details": "Release the tokens that have already vested. Emits a {ERC20Released} event."
      },
      "released()": {
        "details": "Amount of eth already released"
      },
      "released(address)": {
        "details": "Amount of token already released"
      },
      "safeTransferFrom(address,address,uint256)": {
        "details": "Equivalent to `safeTransferFrom(from, to, tokenId, '')`."
      },
      "safeTransferFrom(address,address,uint256,bytes)": {
        "details": "Safely transfers `tokenId` token from `from` to `to`. Requirements: - `from` cannot be the zero address. - `to` cannot be the zero address. - `tokenId` token must exist and be owned by `from`. - If the caller is not `from`, it must be approved to move this token by either {approve} or {setApprovalForAll}. - If `to` refers to a smart contract, it must implement {IERC721Receiver-onERC721Received}, which is called upon a safe transfer. Emits a {Transfer} event."
      },
      "setApprovalForAll(address,bool)": {
        "details": "Approve or remove `operator` as an operator for the caller. Operators can call {transferFrom} or {safeTransferFrom} for any token owned by the caller. Requirements: - The `operator` cannot be the caller. Emits an {ApprovalForAll} event."
      },
      "start()": {
        "details": "Getter for the start timestamp."
      },
      "supportsInterface(bytes4)": {
        "details": "Returns true if this contract implements the interface defined by `interfaceId`. See the corresponding [EIP section](https://eips.ethereum.org/EIPS/eip-165#how-interfaces-are-identified) to learn more about how these ids are created. This function call must use less than 30000 gas."
      },
      "symbol()": {
        "details": "Returns the token collection symbol."
      },
      "tokenURI(uint256)": {
        "details": "Returns the Uniform Resource Identifier (URI) for `tokenId` token."
      },
      "totalSupply()": {
        "details": "Returns the total number of tokens in existence. Burned tokens will reduce the count. To get the total number of tokens minted, please see {_totalMinted}."
      },
      "transferFrom(address,address,uint256)": {
        "details": "Transfers `tokenId` from `from` to `to`. Requirements: - `from` cannot be the zero address. - `to` cannot be the zero address. - `tokenId` token must be owned by `from`. - If the caller is not `from`, it must be approved to move this token by either {approve} or {setApprovalForAll}. Emits a {Transfer} event."
      },
      "vestedAmount(address,uint64)": {
        "details": "Calculates the amount of tokens that has already vested. Default implementation is a linear vesting curve."
      },
      "vestedAmount(uint64)": {
        "details": "Calculates the amount of ether that has already vested. Default implementation is a linear vesting curve."
      }
    },
    "title": "Testing the usage of ERC721RugGripper",
    "version": 1
  },
  "userdoc": {
    "errors": {
      "ApprovalCallerNotOwnerNorApproved()": [
        {
          "notice": "The caller must own the token or be an approved operator."
        }
      ],
      "ApprovalQueryForNonexistentToken()": [
        {
          "notice": "The token does not exist."
        }
      ],
      "BalanceQueryForZeroAddress()": [
        {
          "notice": "Cannot query the balance for the zero address."
        }
      ],
      "MintERC2309QuantityExceedsLimit()": [
        {
          "notice": "The `quantity` minted with ERC2309 exceeds the safety limit."
        }
      ],
      "MintToZeroAddress()": [
        {
          "notice": "Cannot mint to the zero address."
        }
      ],
      "MintZeroQuantity()": [
        {
          "notice": "The quantity of tokens minted must be more than zero."
        }
      ],
      "OwnerQueryForNonexistentToken()": [
        {
          "notice": "The token does not exist."
        }
      ],
      "OwnershipNotInitializedForExtraData()": [
        {
          "notice": "The `extraData` cannot be set on an unintialized ownership slot."
        }
      ],
      "TransferCallerNotOwnerNorApproved()": [
        {
          "notice": "The caller must own the token or be an approved operator."
        }
      ],
      "TransferFromIncorrectOwner()": [
        {
          "notice": "The token must be owned by `from`."
        }
      ],
      "TransferToNonERC721ReceiverImplementer()": [
        {
          "notice": "Cannot safely transfer to a contract that does not implement the ERC721Receiver interface."
        }
      ],
      "TransferToZeroAddress()": [
        {
          "notice": "Cannot transfer to the zero address."
        }
      ],
      "URIQueryForNonexistentToken()": [
        {
          "notice": "The token does not exist."
        }
      ]
    },
    "kind": "user",
    "methods": {
      "DURATION_SEC()": {
        "notice": "Duration sec"
      },
      "MAX_SUPPLY()": {
        "notice": "Max supply"
      },
      "MINT_PRICE()": {
        "notice": "Mint price"
      },
      "publicMint(uint256)": {
        "notice": "Public mint"
      },
      "reMint(uint256[])": {
        "notice": "Re-mint tokens after they are give back to contract"
      },
      "redeem(uint256[])": {
        "notice": "Redeem owned tokens and get back partial fund"
      }
    },
    "version": 1
  },
  "storageLayout": {
    "storage": [
      {
        "astId": 1880,
        "contract": "contracts/mock/ERC721RugGripperMock.sol:ERC721RugGripperMock",
        "label": "_currentIndex",
        "offset": 0,
        "slot": "0",
        "type": "t_uint256"
      },
      {
        "astId": 1882,
        "contract": "contracts/mock/ERC721RugGripperMock.sol:ERC721RugGripperMock",
        "label": "_burnCounter",
        "offset": 0,
        "slot": "1",
        "type": "t_uint256"
      },
      {
        "astId": 1884,
        "contract": "contracts/mock/ERC721RugGripperMock.sol:ERC721RugGripperMock",
        "label": "_name",
        "offset": 0,
        "slot": "2",
        "type": "t_string_storage"
      },
      {
        "astId": 1886,
        "contract": "contracts/mock/ERC721RugGripperMock.sol:ERC721RugGripperMock",
        "label": "_symbol",
        "offset": 0,
        "slot": "3",
        "type": "t_string_storage"
      },
      {
        "astId": 1890,
        "contract": "contracts/mock/ERC721RugGripperMock.sol:ERC721RugGripperMock",
        "label": "_packedOwnerships",
        "offset": 0,
        "slot": "4",
        "type": "t_mapping(t_uint256,t_uint256)"
      },
      {
        "astId": 1894,
        "contract": "contracts/mock/ERC721RugGripperMock.sol:ERC721RugGripperMock",
        "label": "_packedAddressData",
        "offset": 0,
        "slot": "5",
        "type": "t_mapping(t_address,t_uint256)"
      },
      {
        "astId": 1899,
        "contract": "contracts/mock/ERC721RugGripperMock.sol:ERC721RugGripperMock",
        "label": "_tokenApprovals",
        "offset": 0,
        "slot": "6",
        "type": "t_mapping(t_uint256,t_struct(TokenApprovalRef)1812_storage)"
      },
      {
        "astId": 1905,
        "contract": "contracts/mock/ERC721RugGripperMock.sol:ERC721RugGripperMock",
        "label": "_operatorApprovals",
        "offset": 0,
        "slot": "7",
        "type": "t_mapping(t_address,t_mapping(t_address,t_bool))"
      },
      {
        "astId": 20,
        "contract": "contracts/mock/ERC721RugGripperMock.sol:ERC721RugGripperMock",
        "label": "_released",
        "offset": 0,
        "slot": "8",
        "type": "t_uint256"
      },
      {
        "astId": 24,
        "contract": "contracts/mock/ERC721RugGripperMock.sol:ERC721RugGripperMock",
        "label": "_erc20Released",
        "offset": 0,
        "slot": "9",
        "type": "t_mapping(t_address,t_uint256)"
      },
      {
        "astId": 1519,
        "contract": "contracts/mock/ERC721RugGripperMock.sol:ERC721RugGripperMock",
        "label": "_mintPrice",
        "offset": 0,
        "slot": "10",
        "type": "t_uint256"
      }
    ],
    "types": {
      "t_address": {
        "encoding": "inplace",
        "label": "address",
        "numberOfBytes": "20"
      },
      "t_bool": {
        "encoding": "inplace",
        "label": "bool",
        "numberOfBytes": "1"
      },
      "t_mapping(t_address,t_bool)": {
        "encoding": "mapping",
        "key": "t_address",
        "label": "mapping(address => bool)",
        "numberOfBytes": "32",
        "value": "t_bool"
      },
      "t_mapping(t_address,t_mapping(t_address,t_bool))": {
        "encoding": "mapping",
        "key": "t_address",
        "label": "mapping(address => mapping(address => bool))",
        "numberOfBytes": "32",
        "value": "t_mapping(t_address,t_bool)"
      },
      "t_mapping(t_address,t_uint256)": {
        "encoding": "mapping",
        "key": "t_address",
        "label": "mapping(address => uint256)",
        "numberOfBytes": "32",
        "value": "t_uint256"
      },
      "t_mapping(t_uint256,t_struct(TokenApprovalRef)1812_storage)": {
        "encoding": "mapping",
        "key": "t_uint256",
        "label": "mapping(uint256 => struct ERC721A.TokenApprovalRef)",
        "numberOfBytes": "32",
        "value": "t_struct(TokenApprovalRef)1812_storage"
      },
      "t_mapping(t_uint256,t_uint256)": {
        "encoding": "mapping",
        "key": "t_uint256",
        "label": "mapping(uint256 => uint256)",
        "numberOfBytes": "32",
        "value": "t_uint256"
      },
      "t_string_storage": {
        "encoding": "bytes",
        "label": "string",
        "numberOfBytes": "32"
      },
      "t_struct(TokenApprovalRef)1812_storage": {
        "encoding": "inplace",
        "label": "struct ERC721A.TokenApprovalRef",
        "members": [
          {
            "astId": 1811,
            "contract": "contracts/mock/ERC721RugGripperMock.sol:ERC721RugGripperMock",
            "label": "value",
            "offset": 0,
            "slot": "0",
            "type": "t_address"
          }
        ],
        "numberOfBytes": "32"
      },
      "t_uint256": {
        "encoding": "inplace",
        "label": "uint256",
        "numberOfBytes": "32"
      }
    }
  }
}